{
  "contractName": "ReceiverPays",
  "abi": [
    {
      "inputs": [],
      "payable": true,
      "stateMutability": "payable",
      "type": "constructor"
    },
    {
      "constant": false,
      "inputs": [
        {
          "internalType": "uint256",
          "name": "amount",
          "type": "uint256"
        },
        {
          "internalType": "uint256",
          "name": "nonce",
          "type": "uint256"
        },
        {
          "internalType": "bytes",
          "name": "signature",
          "type": "bytes"
        }
      ],
      "name": "claimPayment",
      "outputs": [],
      "payable": false,
      "stateMutability": "nonpayable",
      "type": "function"
    },
    {
      "constant": false,
      "inputs": [],
      "name": "kill",
      "outputs": [],
      "payable": false,
      "stateMutability": "nonpayable",
      "type": "function"
    }
  ],
  "bytecode": "0x6080604052336000806101000a81548173ffffffffffffffffffffffffffffffffffffffff021916908373ffffffffffffffffffffffffffffffffffffffff160217905550610483806100536000396000f3fe608060405234801561001057600080fd5b50600436106100365760003560e01c806341c0e1b51461003b578063a90ae88714610045575b600080fd5b610043610114565b005b6101126004803603606081101561005b57600080fd5b8101908080359060200190929190803590602001909291908035906020019064010000000081111561008c57600080fd5b82018360208201111561009e57600080fd5b803590602001918460018302840111640100000000831117156100c057600080fd5b91908080601f016020809104026020016040519081016040528093929190818152602001838380828437600081840152601f19601f820116905080830192505050505050509192919290505050610186565b005b6000809054906101000a900473ffffffffffffffffffffffffffffffffffffffff1673ffffffffffffffffffffffffffffffffffffffff163373ffffffffffffffffffffffffffffffffffffffff161461016d57600080fd5b3373ffffffffffffffffffffffffffffffffffffffff16ff5b6001600083815260200190815260200160002060009054906101000a900460ff16156101b157600080fd5b600180600084815260200190815260200160002060006101000a81548160ff021916908315150217905550600061028333858530604051602001808573ffffffffffffffffffffffffffffffffffffffff1673ffffffffffffffffffffffffffffffffffffffff1660601b81526014018481526020018381526020018273ffffffffffffffffffffffffffffffffffffffff1673ffffffffffffffffffffffffffffffffffffffff1660601b815260140194505050505060405160208183030381529060405280519060200120610334565b90506000809054906101000a900473ffffffffffffffffffffffffffffffffffffffff1673ffffffffffffffffffffffffffffffffffffffff166102c7828461038c565b73ffffffffffffffffffffffffffffffffffffffff16146102e757600080fd5b3373ffffffffffffffffffffffffffffffffffffffff166108fc859081150290604051600060405180830381858888f1935050505015801561032d573d6000803e3d6000fd5b5050505050565b60008160405160200180807f19457468657265756d205369676e6564204d6573736167653a0a333200000000815250601c01828152602001915050604051602081830303815290604052805190602001209050919050565b60008060008061039b85610413565b92509250925060018684848460405160008152602001604052604051808581526020018460ff1660ff1681526020018381526020018281526020019450505050506020604051602081039080840390855afa1580156103fe573d6000803e3d6000fd5b50505060206040510351935050505092915050565b6000806000604184511461042657600080fd5b6020840151915060408401519050606084015160001a9250828282925092509250919390925056fea265627a7a72315820117578b9d26394224cc02596717698d55302c82c0b7290429f338f3f04629c4a64736f6c63430005100032",
  "source": "// SPDX-License-Identifier: MIT\npragma solidity >=0.4.22 <0.9.0;\n\ncontract ReceiverPays {\n    address owner = msg.sender;\n    mapping(uint256 => bool) usedNonces;\n\n    constructor() public payable {}\n\n    function claimPayment(uint256 amount, uint256 nonce, bytes memory signature) public {\n        require(!usedNonces[nonce]);\n        usedNonces[nonce] = true;\n\n        bytes32 message = prefixed(keccak256(abi.encodePacked(msg.sender, amount, nonce, this)));\n\n        require(recoverSigner(message, signature) == owner);\n\n        msg.sender.transfer(amount);\n    }\n\n    function kill() public {\n        require(msg.sender == owner);\n        selfdestruct(msg.sender);\n    }\n\n    function splitSignature(bytes memory sig)\n        internal\n        pure\n        returns (uint8 v, bytes32 r, bytes32 s)\n    {\n        require(sig.length == 65);\n\n        assembly {\n            r := mload(add(sig, 32))\n            s := mload(add(sig, 64))\n            v := byte(0, mload(add(sig, 96)))\n        }\n\n        return (v, r, s);\n    }\n\n    function recoverSigner(bytes32 message, bytes memory sig)\n        internal\n        pure\n        returns (address)\n    {\n        (uint8 v, bytes32 r, bytes32 s) = splitSignature(sig);\n\n        return ecrecover(message, v, r, s);\n    }\n\n    function prefixed(bytes32 hash) internal pure returns (bytes32) {\n        return keccak256(abi.encodePacked(\"\\x19Ethereum Signed Message:\\n32\", hash));\n    }\n}\n",
  "sourcePath": "/Users/fumiya.shinozuka/ghq/github.com/shinofumijp/solidity_samples/contracts/ReceiverPays.sol",
  "compiler": {
    "name": "solc",
    "version": "0.5.16+commit.9c3226ce.Emscripten.clang"
  },
  "schemaVersion": "3.4.1",
  "updatedAt": "2021-07-14T14:33:48.079Z",
  "devdoc": {
    "methods": {}
  },
  "userdoc": {
    "methods": {}
  }
}